{
  "_format": "hh-sol-artifact-1",
  "contractName": "VIPTicketsV1",
  "sourceName": "contracts/VIPTicketsV1.sol",
  "abi": [
    {
      "anonymous": false,
      "inputs": [
        {
          "indexed": false,
          "internalType": "address",
          "name": "previousAdmin",
          "type": "address"
        },
        {
          "indexed": false,
          "internalType": "address",
          "name": "newAdmin",
          "type": "address"
        }
      ],
      "name": "AdminChanged",
      "type": "event"
    },
    {
      "anonymous": false,
      "inputs": [
        {
          "indexed": true,
          "internalType": "address",
          "name": "owner",
          "type": "address"
        },
        {
          "indexed": true,
          "internalType": "address",
          "name": "spender",
          "type": "address"
        },
        {
          "indexed": false,
          "internalType": "uint256",
          "name": "value",
          "type": "uint256"
        }
      ],
      "name": "Approval",
      "type": "event"
    },
    {
      "anonymous": false,
      "inputs": [
        {
          "indexed": true,
          "internalType": "address",
          "name": "beacon",
          "type": "address"
        }
      ],
      "name": "BeaconUpgraded",
      "type": "event"
    },
    {
      "anonymous": false,
      "inputs": [
        {
          "indexed": false,
          "internalType": "uint8",
          "name": "version",
          "type": "uint8"
        }
      ],
      "name": "Initialized",
      "type": "event"
    },
    {
      "anonymous": false,
      "inputs": [
        {
          "indexed": true,
          "internalType": "address",
          "name": "previousOwner",
          "type": "address"
        },
        {
          "indexed": true,
          "internalType": "address",
          "name": "newOwner",
          "type": "address"
        }
      ],
      "name": "OwnershipTransferred",
      "type": "event"
    },
    {
      "anonymous": false,
      "inputs": [
        {
          "indexed": true,
          "internalType": "address",
          "name": "from",
          "type": "address"
        },
        {
          "indexed": true,
          "internalType": "address",
          "name": "to",
          "type": "address"
        },
        {
          "indexed": false,
          "internalType": "uint256",
          "name": "value",
          "type": "uint256"
        }
      ],
      "name": "Transfer",
      "type": "event"
    },
    {
      "anonymous": false,
      "inputs": [
        {
          "indexed": true,
          "internalType": "address",
          "name": "implementation",
          "type": "address"
        }
      ],
      "name": "Upgraded",
      "type": "event"
    },
    {
      "inputs": [
        {
          "internalType": "address",
          "name": "owner",
          "type": "address"
        },
        {
          "internalType": "address",
          "name": "spender",
          "type": "address"
        }
      ],
      "name": "allowance",
      "outputs": [
        {
          "internalType": "uint256",
          "name": "",
          "type": "uint256"
        }
      ],
      "stateMutability": "view",
      "type": "function"
    },
    {
      "inputs": [
        {
          "internalType": "address",
          "name": "spender",
          "type": "address"
        },
        {
          "internalType": "uint256",
          "name": "amount",
          "type": "uint256"
        }
      ],
      "name": "approve",
      "outputs": [
        {
          "internalType": "bool",
          "name": "",
          "type": "bool"
        }
      ],
      "stateMutability": "nonpayable",
      "type": "function"
    },
    {
      "inputs": [
        {
          "internalType": "address",
          "name": "account",
          "type": "address"
        }
      ],
      "name": "balanceOf",
      "outputs": [
        {
          "internalType": "uint256",
          "name": "",
          "type": "uint256"
        }
      ],
      "stateMutability": "view",
      "type": "function"
    },
    {
      "inputs": [],
      "name": "decimals",
      "outputs": [
        {
          "internalType": "uint8",
          "name": "",
          "type": "uint8"
        }
      ],
      "stateMutability": "pure",
      "type": "function"
    },
    {
      "inputs": [
        {
          "internalType": "address",
          "name": "spender",
          "type": "address"
        },
        {
          "internalType": "uint256",
          "name": "subtractedValue",
          "type": "uint256"
        }
      ],
      "name": "decreaseAllowance",
      "outputs": [
        {
          "internalType": "bool",
          "name": "",
          "type": "bool"
        }
      ],
      "stateMutability": "nonpayable",
      "type": "function"
    },
    {
      "inputs": [
        {
          "internalType": "address",
          "name": "spender",
          "type": "address"
        },
        {
          "internalType": "uint256",
          "name": "addedValue",
          "type": "uint256"
        }
      ],
      "name": "increaseAllowance",
      "outputs": [
        {
          "internalType": "bool",
          "name": "",
          "type": "bool"
        }
      ],
      "stateMutability": "nonpayable",
      "type": "function"
    },
    {
      "inputs": [
        {
          "internalType": "string",
          "name": "tokenName",
          "type": "string"
        },
        {
          "internalType": "string",
          "name": "tokenSymbol",
          "type": "string"
        },
        {
          "internalType": "uint256",
          "name": "initialSupply",
          "type": "uint256"
        }
      ],
      "name": "initialize",
      "outputs": [],
      "stateMutability": "nonpayable",
      "type": "function"
    },
    {
      "inputs": [],
      "name": "name",
      "outputs": [
        {
          "internalType": "string",
          "name": "",
          "type": "string"
        }
      ],
      "stateMutability": "view",
      "type": "function"
    },
    {
      "inputs": [],
      "name": "owner",
      "outputs": [
        {
          "internalType": "address",
          "name": "",
          "type": "address"
        }
      ],
      "stateMutability": "view",
      "type": "function"
    },
    {
      "inputs": [],
      "name": "proxiableUUID",
      "outputs": [
        {
          "internalType": "bytes32",
          "name": "",
          "type": "bytes32"
        }
      ],
      "stateMutability": "view",
      "type": "function"
    },
    {
      "inputs": [],
      "name": "renounceOwnership",
      "outputs": [],
      "stateMutability": "nonpayable",
      "type": "function"
    },
    {
      "inputs": [],
      "name": "symbol",
      "outputs": [
        {
          "internalType": "string",
          "name": "",
          "type": "string"
        }
      ],
      "stateMutability": "view",
      "type": "function"
    },
    {
      "inputs": [],
      "name": "totalSupply",
      "outputs": [
        {
          "internalType": "uint256",
          "name": "",
          "type": "uint256"
        }
      ],
      "stateMutability": "view",
      "type": "function"
    },
    {
      "inputs": [
        {
          "internalType": "address",
          "name": "to",
          "type": "address"
        },
        {
          "internalType": "uint256",
          "name": "amount",
          "type": "uint256"
        }
      ],
      "name": "transfer",
      "outputs": [
        {
          "internalType": "bool",
          "name": "",
          "type": "bool"
        }
      ],
      "stateMutability": "nonpayable",
      "type": "function"
    },
    {
      "inputs": [
        {
          "internalType": "address",
          "name": "from",
          "type": "address"
        },
        {
          "internalType": "address",
          "name": "to",
          "type": "address"
        },
        {
          "internalType": "uint256",
          "name": "amount",
          "type": "uint256"
        }
      ],
      "name": "transferFrom",
      "outputs": [
        {
          "internalType": "bool",
          "name": "",
          "type": "bool"
        }
      ],
      "stateMutability": "nonpayable",
      "type": "function"
    },
    {
      "inputs": [
        {
          "internalType": "address",
          "name": "newOwner",
          "type": "address"
        }
      ],
      "name": "transferOwnership",
      "outputs": [],
      "stateMutability": "nonpayable",
      "type": "function"
    },
    {
      "inputs": [
        {
          "internalType": "address",
          "name": "newImplementation",
          "type": "address"
        }
      ],
      "name": "upgradeTo",
      "outputs": [],
      "stateMutability": "nonpayable",
      "type": "function"
    },
    {
      "inputs": [
        {
          "internalType": "address",
          "name": "newImplementation",
          "type": "address"
        },
        {
          "internalType": "bytes",
          "name": "data",
          "type": "bytes"
        }
      ],
      "name": "upgradeToAndCall",
      "outputs": [],
      "stateMutability": "payable",
      "type": "function"
    }
  ],
  "bytecode": "0x60a06040523073ffffffffffffffffffffffffffffffffffffffff1660809073ffffffffffffffffffffffffffffffffffffffff1681525034801561004357600080fd5b5060805161316061007b60003960008181610562015281816105f001528181610721015281816107af015261085f01526131606000f3fe6080604052600436106101095760003560e01c806370a0823111610095578063a457c2d711610064578063a457c2d714610360578063a9059cbb1461039d578063b119490e146103da578063dd62ed3e14610403578063f2fde38b1461044057610109565b806370a08231146102b6578063715018a6146102f35780638da5cb5b1461030a57806395d89b411461033557610109565b8063313ce567116100dc578063313ce567146101de5780633659cfe61461020957806339509351146102325780634f1ef2861461026f57806352d1902d1461028b57610109565b806306fdde031461010e578063095ea7b31461013957806318160ddd1461017657806323b872dd146101a1575b600080fd5b34801561011a57600080fd5b50610123610469565b6040516101309190611d4f565b60405180910390f35b34801561014557600080fd5b50610160600480360381019061015b9190611e19565b6104fb565b60405161016d9190611e74565b60405180910390f35b34801561018257600080fd5b5061018b61051e565b6040516101989190611e9e565b60405180910390f35b3480156101ad57600080fd5b506101c860048036038101906101c39190611eb9565b610528565b6040516101d59190611e74565b60405180910390f35b3480156101ea57600080fd5b506101f3610557565b6040516102009190611f28565b60405180910390f35b34801561021557600080fd5b50610230600480360381019061022b9190611f43565b610560565b005b34801561023e57600080fd5b5061025960048036038101906102549190611e19565b6106e8565b6040516102669190611e74565b60405180910390f35b610289600480360381019061028491906120a5565b61071f565b005b34801561029757600080fd5b506102a061085b565b6040516102ad919061211a565b60405180910390f35b3480156102c257600080fd5b506102dd60048036038101906102d89190611f43565b610914565b6040516102ea9190611e9e565b60405180910390f35b3480156102ff57600080fd5b5061030861095d565b005b34801561031657600080fd5b5061031f6109e5565b60405161032c9190612144565b60405180910390f35b34801561034157600080fd5b5061034a610a0f565b6040516103579190611d4f565b60405180910390f35b34801561036c57600080fd5b5061038760048036038101906103829190611e19565b610aa1565b6040516103949190611e74565b60405180910390f35b3480156103a957600080fd5b506103c460048036038101906103bf9190611e19565b610b18565b6040516103d19190611e74565b60405180910390f35b3480156103e657600080fd5b5061040160048036038101906103fc9190612200565b610b3b565b005b34801561040f57600080fd5b5061042a6004803603810190610425919061228b565b610c0c565b6040516104379190611e9e565b60405180910390f35b34801561044c57600080fd5b5061046760048036038101906104629190611f43565b610c93565b005b606060368054610478906122fa565b80601f01602080910402602001604051908101604052809291908181526020018280546104a4906122fa565b80156104f15780601f106104c6576101008083540402835291602001916104f1565b820191906000526020600020905b8154815290600101906020018083116104d457829003601f168201915b5050505050905090565b600080610506610d8a565b9050610513818585610d92565b600191505092915050565b6000603554905090565b600080610533610d8a565b9050610540858285610f5b565b61054b858585610fe7565b60019150509392505050565b60006006905090565b7f000000000000000000000000000000000000000000000000000000000000000073ffffffffffffffffffffffffffffffffffffffff163073ffffffffffffffffffffffffffffffffffffffff16036105ee576040517f08c379a00000000000000000000000000000000000000000000000000000000081526004016105e59061239d565b60405180910390fd5b7f000000000000000000000000000000000000000000000000000000000000000073ffffffffffffffffffffffffffffffffffffffff1661062d611269565b73ffffffffffffffffffffffffffffffffffffffff1614610683576040517f08c379a000000000000000000000000000000000000000000000000000000000815260040161067a9061242f565b60405180910390fd5b61068c816112c0565b6106e581600067ffffffffffffffff8111156106ab576106aa611f7a565b5b6040519080825280601f01601f1916602001820160405280156106dd5781602001600182028036833780820191505090505b50600061133f565b50565b6000806106f3610d8a565b90506107148185856107058589610c0c565b61070f919061247e565b610d92565b600191505092915050565b7f000000000000000000000000000000000000000000000000000000000000000073ffffffffffffffffffffffffffffffffffffffff163073ffffffffffffffffffffffffffffffffffffffff16036107ad576040517f08c379a00000000000000000000000000000000000000000000000000000000081526004016107a49061239d565b60405180910390fd5b7f000000000000000000000000000000000000000000000000000000000000000073ffffffffffffffffffffffffffffffffffffffff166107ec611269565b73ffffffffffffffffffffffffffffffffffffffff1614610842576040517f08c379a00000000000000000000000000000000000000000000000000000000081526004016108399061242f565b60405180910390fd5b61084b826112c0565b6108578282600161133f565b5050565b60007f000000000000000000000000000000000000000000000000000000000000000073ffffffffffffffffffffffffffffffffffffffff163073ffffffffffffffffffffffffffffffffffffffff16146108eb576040517f08c379a00000000000000000000000000000000000000000000000000000000081526004016108e290612546565b60405180910390fd5b7f360894a13ba1a3210667c828492db98dca3e2076cc3735a920a3ca505d382bbc60001b905090565b6000603360008373ffffffffffffffffffffffffffffffffffffffff1673ffffffffffffffffffffffffffffffffffffffff168152602001908152602001600020549050919050565b610965610d8a565b73ffffffffffffffffffffffffffffffffffffffff166109836109e5565b73ffffffffffffffffffffffffffffffffffffffff16146109d9576040517f08c379a00000000000000000000000000000000000000000000000000000000081526004016109d0906125b2565b60405180910390fd5b6109e360006114ad565b565b600060c960009054906101000a900473ffffffffffffffffffffffffffffffffffffffff16905090565b606060378054610a1e906122fa565b80601f0160208091040260200160405190810160405280929190818152602001828054610a4a906122fa565b8015610a975780601f10610a6c57610100808354040283529160200191610a97565b820191906000526020600020905b815481529060010190602001808311610a7a57829003601f168201915b5050505050905090565b600080610aac610d8a565b90506000610aba8286610c0c565b905083811015610aff576040517f08c379a0000000000000000000000000000000000000000000000000000000008152600401610af690612644565b60405180910390fd5b610b0c8286868403610d92565b60019250505092915050565b600080610b23610d8a565b9050610b30818585610fe7565b600191505092915050565b6000610b476001611573565b90508015610b6b576001600060016101000a81548160ff0219169083151502179055505b610b758484611663565b610b7d6116c0565b610b85611721565b610bad33610b91610557565b600a610b9d9190612797565b84610ba891906127e2565b611772565b8015610c065760008060016101000a81548160ff0219169083151502179055507f7f26b83ff96e1f2b6a682f133852f6798a09c465da95921460cefb38474024986001604051610bfd9190612881565b60405180910390a15b50505050565b6000603460008473ffffffffffffffffffffffffffffffffffffffff1673ffffffffffffffffffffffffffffffffffffffff16815260200190815260200160002060008373ffffffffffffffffffffffffffffffffffffffff1673ffffffffffffffffffffffffffffffffffffffff16815260200190815260200160002054905092915050565b610c9b610d8a565b73ffffffffffffffffffffffffffffffffffffffff16610cb96109e5565b73ffffffffffffffffffffffffffffffffffffffff1614610d0f576040517f08c379a0000000000000000000000000000000000000000000000000000000008152600401610d06906125b2565b60405180910390fd5b600073ffffffffffffffffffffffffffffffffffffffff168173ffffffffffffffffffffffffffffffffffffffff1603610d7e576040517f08c379a0000000000000000000000000000000000000000000000000000000008152600401610d759061290e565b60405180910390fd5b610d87816114ad565b50565b600033905090565b600073ffffffffffffffffffffffffffffffffffffffff168373ffffffffffffffffffffffffffffffffffffffff1603610e01576040517f08c379a0000000000000000000000000000000000000000000000000000000008152600401610df8906129a0565b60405180910390fd5b600073ffffffffffffffffffffffffffffffffffffffff168273ffffffffffffffffffffffffffffffffffffffff1603610e70576040517f08c379a0000000000000000000000000000000000000000000000000000000008152600401610e6790612a32565b60405180910390fd5b80603460008573ffffffffffffffffffffffffffffffffffffffff1673ffffffffffffffffffffffffffffffffffffffff16815260200190815260200160002060008473ffffffffffffffffffffffffffffffffffffffff1673ffffffffffffffffffffffffffffffffffffffff168152602001908152602001600020819055508173ffffffffffffffffffffffffffffffffffffffff168373ffffffffffffffffffffffffffffffffffffffff167f8c5be1e5ebec7d5bd14f71427d1e84f3dd0314c0f7b2291e5b200ac8c7c3b92583604051610f4e9190611e9e565b60405180910390a3505050565b6000610f678484610c0c565b90507fffffffffffffffffffffffffffffffffffffffffffffffffffffffffffffffff8114610fe15781811015610fd3576040517f08c379a0000000000000000000000000000000000000000000000000000000008152600401610fca90612a9e565b60405180910390fd5b610fe08484848403610d92565b5b50505050565b600073ffffffffffffffffffffffffffffffffffffffff168373ffffffffffffffffffffffffffffffffffffffff1603611056576040517f08c379a000000000000000000000000000000000000000000000000000000000815260040161104d90612b30565b60405180910390fd5b600073ffffffffffffffffffffffffffffffffffffffff168273ffffffffffffffffffffffffffffffffffffffff16036110c5576040517f08c379a00000000000000000000000000000000000000000000000000000000081526004016110bc90612bc2565b60405180910390fd5b6110d08383836118d2565b6000603360008573ffffffffffffffffffffffffffffffffffffffff1673ffffffffffffffffffffffffffffffffffffffff16815260200190815260200160002054905081811015611157576040517f08c379a000000000000000000000000000000000000000000000000000000000815260040161114e90612c54565b60405180910390fd5b818103603360008673ffffffffffffffffffffffffffffffffffffffff1673ffffffffffffffffffffffffffffffffffffffff1681526020019081526020016000208190555081603360008573ffffffffffffffffffffffffffffffffffffffff1673ffffffffffffffffffffffffffffffffffffffff16815260200190815260200160002060008282546111ec919061247e565b925050819055508273ffffffffffffffffffffffffffffffffffffffff168473ffffffffffffffffffffffffffffffffffffffff167fddf252ad1be2c89b69c2b068fc378daa952ba7f163c4a11628f55a4df523b3ef846040516112509190611e9e565b60405180910390a36112638484846118d7565b50505050565b60006112977f360894a13ba1a3210667c828492db98dca3e2076cc3735a920a3ca505d382bbc60001b6118dc565b60000160009054906101000a900473ffffffffffffffffffffffffffffffffffffffff16905090565b6112c8610d8a565b73ffffffffffffffffffffffffffffffffffffffff166112e66109e5565b73ffffffffffffffffffffffffffffffffffffffff161461133c576040517f08c379a0000000000000000000000000000000000000000000000000000000008152600401611333906125b2565b60405180910390fd5b50565b61136b7f4910fdfa16fed3260ed0e7147f7cc6da11a60208b5b9406d12a635614ffd914360001b6118e6565b60000160009054906101000a900460ff161561138f5761138a836118f0565b6114a8565b8273ffffffffffffffffffffffffffffffffffffffff166352d1902d6040518163ffffffff1660e01b8152600401602060405180830381865afa9250505080156113f757506040513d601f19601f820116820180604052508101906113f49190612ca0565b60015b611436576040517f08c379a000000000000000000000000000000000000000000000000000000000815260040161142d90612d3f565b60405180910390fd5b7f360894a13ba1a3210667c828492db98dca3e2076cc3735a920a3ca505d382bbc60001b811461149b576040517f08c379a000000000000000000000000000000000000000000000000000000000815260040161149290612dd1565b60405180910390fd5b506114a78383836119a9565b5b505050565b600060c960009054906101000a900473ffffffffffffffffffffffffffffffffffffffff1690508160c960006101000a81548173ffffffffffffffffffffffffffffffffffffffff021916908373ffffffffffffffffffffffffffffffffffffffff1602179055508173ffffffffffffffffffffffffffffffffffffffff168173ffffffffffffffffffffffffffffffffffffffff167f8be0079c531659141344cd1fd0a4f28419497f9722a3daafe3b4186f6b6457e060405160405180910390a35050565b60008060019054906101000a900460ff16156115ea5760018260ff161480156115a257506115a0306119d5565b155b6115e1576040517f08c379a00000000000000000000000000000000000000000000000000000000081526004016115d890612e63565b60405180910390fd5b6000905061165e565b8160ff1660008054906101000a900460ff1660ff161061163f576040517f08c379a000000000000000000000000000000000000000000000000000000000815260040161163690612e63565b60405180910390fd5b816000806101000a81548160ff021916908360ff160217905550600190505b919050565b600060019054906101000a900460ff166116b2576040517f08c379a00000000000000000000000000000000000000000000000000000000081526004016116a990612ef5565b60405180910390fd5b6116bc82826119f8565b5050565b600060019054906101000a900460ff1661170f576040517f08c379a000000000000000000000000000000000000000000000000000000000815260040161170690612ef5565b60405180910390fd5b61171f61171a610d8a565b6114ad565b565b600060019054906101000a900460ff16611770576040517f08c379a000000000000000000000000000000000000000000000000000000000815260040161176790612ef5565b60405180910390fd5b565b600073ffffffffffffffffffffffffffffffffffffffff168273ffffffffffffffffffffffffffffffffffffffff16036117e1576040517f08c379a00000000000000000000000000000000000000000000000000000000081526004016117d890612f61565b60405180910390fd5b6117ed600083836118d2565b80603560008282546117ff919061247e565b9250508190555080603360008473ffffffffffffffffffffffffffffffffffffffff1673ffffffffffffffffffffffffffffffffffffffff1681526020019081526020016000206000828254611855919061247e565b925050819055508173ffffffffffffffffffffffffffffffffffffffff16600073ffffffffffffffffffffffffffffffffffffffff167fddf252ad1be2c89b69c2b068fc378daa952ba7f163c4a11628f55a4df523b3ef836040516118ba9190611e9e565b60405180910390a36118ce600083836118d7565b5050565b505050565b505050565b6000819050919050565b6000819050919050565b6118f9816119d5565b611938576040517f08c379a000000000000000000000000000000000000000000000000000000000815260040161192f90612ff3565b60405180910390fd5b806119657f360894a13ba1a3210667c828492db98dca3e2076cc3735a920a3ca505d382bbc60001b6118dc565b60000160006101000a81548173ffffffffffffffffffffffffffffffffffffffff021916908373ffffffffffffffffffffffffffffffffffffffff16021790555050565b6119b283611a79565b6000825111806119bf5750805b156119d0576119ce8383611ac8565b505b505050565b6000808273ffffffffffffffffffffffffffffffffffffffff163b119050919050565b600060019054906101000a900460ff16611a47576040517f08c379a0000000000000000000000000000000000000000000000000000000008152600401611a3e90612ef5565b60405180910390fd5b8160369080519060200190611a5d929190611c13565b508060379080519060200190611a74929190611c13565b505050565b611a82816118f0565b8073ffffffffffffffffffffffffffffffffffffffff167fbc7cd75a20ee27fd9adebab32041f755214dbc6bffa90cc0225b39da2e5c2d3b60405160405180910390a250565b6060611ad3836119d5565b611b12576040517f08c379a0000000000000000000000000000000000000000000000000000000008152600401611b0990613085565b60405180910390fd5b6000808473ffffffffffffffffffffffffffffffffffffffff1684604051611b3a91906130ec565b600060405180830381855af49150503d8060008114611b75576040519150601f19603f3d011682016040523d82523d6000602084013e611b7a565b606091505b5091509150611ba2828260405180606001604052806027815260200161310460279139611bac565b9250505092915050565b60608315611bbc57829050611c0c565b600083511115611bcf5782518084602001fd5b816040517f08c379a0000000000000000000000000000000000000000000000000000000008152600401611c039190611d4f565b60405180910390fd5b9392505050565b828054611c1f906122fa565b90600052602060002090601f016020900481019282611c415760008555611c88565b82601f10611c5a57805160ff1916838001178555611c88565b82800160010185558215611c88579182015b82811115611c87578251825591602001919060010190611c6c565b5b509050611c959190611c99565b5090565b5b80821115611cb2576000816000905550600101611c9a565b5090565b600081519050919050565b600082825260208201905092915050565b60005b83811015611cf0578082015181840152602081019050611cd5565b83811115611cff576000848401525b50505050565b6000601f19601f8301169050919050565b6000611d2182611cb6565b611d2b8185611cc1565b9350611d3b818560208601611cd2565b611d4481611d05565b840191505092915050565b60006020820190508181036000830152611d698184611d16565b905092915050565b6000604051905090565b600080fd5b600080fd5b600073ffffffffffffffffffffffffffffffffffffffff82169050919050565b6000611db082611d85565b9050919050565b611dc081611da5565b8114611dcb57600080fd5b50565b600081359050611ddd81611db7565b92915050565b6000819050919050565b611df681611de3565b8114611e0157600080fd5b50565b600081359050611e1381611ded565b92915050565b60008060408385031215611e3057611e2f611d7b565b5b6000611e3e85828601611dce565b9250506020611e4f85828601611e04565b9150509250929050565b60008115159050919050565b611e6e81611e59565b82525050565b6000602082019050611e896000830184611e65565b92915050565b611e9881611de3565b82525050565b6000602082019050611eb36000830184611e8f565b92915050565b600080600060608486031215611ed257611ed1611d7b565b5b6000611ee086828701611dce565b9350506020611ef186828701611dce565b9250506040611f0286828701611e04565b9150509250925092565b600060ff82169050919050565b611f2281611f0c565b82525050565b6000602082019050611f3d6000830184611f19565b92915050565b600060208284031215611f5957611f58611d7b565b5b6000611f6784828501611dce565b91505092915050565b600080fd5b600080fd5b7f4e487b7100000000000000000000000000000000000000000000000000000000600052604160045260246000fd5b611fb282611d05565b810181811067ffffffffffffffff82111715611fd157611fd0611f7a565b5b80604052505050565b6000611fe4611d71565b9050611ff08282611fa9565b919050565b600067ffffffffffffffff8211156120105761200f611f7a565b5b61201982611d05565b9050602081019050919050565b82818337600083830152505050565b600061204861204384611ff5565b611fda565b90508281526020810184848401111561206457612063611f75565b5b61206f848285612026565b509392505050565b600082601f83011261208c5761208b611f70565b5b813561209c848260208601612035565b91505092915050565b600080604083850312156120bc576120bb611d7b565b5b60006120ca85828601611dce565b925050602083013567ffffffffffffffff8111156120eb576120ea611d80565b5b6120f785828601612077565b9150509250929050565b6000819050919050565b61211481612101565b82525050565b600060208201905061212f600083018461210b565b92915050565b61213e81611da5565b82525050565b60006020820190506121596000830184612135565b92915050565b600067ffffffffffffffff82111561217a57612179611f7a565b5b61218382611d05565b9050602081019050919050565b60006121a361219e8461215f565b611fda565b9050828152602081018484840111156121bf576121be611f75565b5b6121ca848285612026565b509392505050565b600082601f8301126121e7576121e6611f70565b5b81356121f7848260208601612190565b91505092915050565b60008060006060848603121561221957612218611d7b565b5b600084013567ffffffffffffffff81111561223757612236611d80565b5b612243868287016121d2565b935050602084013567ffffffffffffffff81111561226457612263611d80565b5b612270868287016121d2565b925050604061228186828701611e04565b9150509250925092565b600080604083850312156122a2576122a1611d7b565b5b60006122b085828601611dce565b92505060206122c185828601611dce565b9150509250929050565b7f4e487b7100000000000000000000000000000000000000000000000000000000600052602260045260246000fd5b6000600282049050600182168061231257607f821691505b602082108103612325576123246122cb565b5b50919050565b7f46756e6374696f6e206d7573742062652063616c6c6564207468726f7567682060008201527f64656c656761746563616c6c0000000000000000000000000000000000000000602082015250565b6000612387602c83611cc1565b91506123928261232b565b604082019050919050565b600060208201905081810360008301526123b68161237a565b9050919050565b7f46756e6374696f6e206d7573742062652063616c6c6564207468726f7567682060008201527f6163746976652070726f78790000000000000000000000000000000000000000602082015250565b6000612419602c83611cc1565b9150612424826123bd565b604082019050919050565b600060208201905081810360008301526124488161240c565b9050919050565b7f4e487b7100000000000000000000000000000000000000000000000000000000600052601160045260246000fd5b600061248982611de3565b915061249483611de3565b9250827fffffffffffffffffffffffffffffffffffffffffffffffffffffffffffffffff038211156124c9576124c861244f565b5b828201905092915050565b7f555550535570677261646561626c653a206d757374206e6f742062652063616c60008201527f6c6564207468726f7567682064656c656761746563616c6c0000000000000000602082015250565b6000612530603883611cc1565b915061253b826124d4565b604082019050919050565b6000602082019050818103600083015261255f81612523565b9050919050565b7f4f776e61626c653a2063616c6c6572206973206e6f7420746865206f776e6572600082015250565b600061259c602083611cc1565b91506125a782612566565b602082019050919050565b600060208201905081810360008301526125cb8161258f565b9050919050565b7f45524332303a2064656372656173656420616c6c6f77616e63652062656c6f7760008201527f207a65726f000000000000000000000000000000000000000000000000000000602082015250565b600061262e602583611cc1565b9150612639826125d2565b604082019050919050565b6000602082019050818103600083015261265d81612621565b9050919050565b60008160011c9050919050565b6000808291508390505b60018511156126bb578086048111156126975761269661244f565b5b60018516156126a65780820291505b80810290506126b485612664565b945061267b565b94509492505050565b6000826126d45760019050612790565b816126e25760009050612790565b81600181146126f8576002811461270257612731565b6001915050612790565b60ff8411156127145761271361244f565b5b8360020a91508482111561272b5761272a61244f565b5b50612790565b5060208310610133831016604e8410600b84101617156127665782820a9050838111156127615761276061244f565b5b612790565b6127738484846001612671565b9250905081840481111561278a5761278961244f565b5b81810290505b9392505050565b60006127a282611de3565b91506127ad83611f0c565b92506127da7fffffffffffffffffffffffffffffffffffffffffffffffffffffffffffffffff84846126c4565b905092915050565b60006127ed82611de3565b91506127f883611de3565b9250817fffffffffffffffffffffffffffffffffffffffffffffffffffffffffffffffff04831182151516156128315761283061244f565b5b828202905092915050565b6000819050919050565b6000819050919050565b600061286b6128666128618461283c565b612846565b611f0c565b9050919050565b61287b81612850565b82525050565b60006020820190506128966000830184612872565b92915050565b7f4f776e61626c653a206e6577206f776e657220697320746865207a65726f206160008201527f6464726573730000000000000000000000000000000000000000000000000000602082015250565b60006128f8602683611cc1565b91506129038261289c565b604082019050919050565b60006020820190508181036000830152612927816128eb565b9050919050565b7f45524332303a20617070726f76652066726f6d20746865207a65726f2061646460008201527f7265737300000000000000000000000000000000000000000000000000000000602082015250565b600061298a602483611cc1565b91506129958261292e565b604082019050919050565b600060208201905081810360008301526129b98161297d565b9050919050565b7f45524332303a20617070726f766520746f20746865207a65726f20616464726560008201527f7373000000000000000000000000000000000000000000000000000000000000602082015250565b6000612a1c602283611cc1565b9150612a27826129c0565b604082019050919050565b60006020820190508181036000830152612a4b81612a0f565b9050919050565b7f45524332303a20696e73756666696369656e7420616c6c6f77616e6365000000600082015250565b6000612a88601d83611cc1565b9150612a9382612a52565b602082019050919050565b60006020820190508181036000830152612ab781612a7b565b9050919050565b7f45524332303a207472616e736665722066726f6d20746865207a65726f20616460008201527f6472657373000000000000000000000000000000000000000000000000000000602082015250565b6000612b1a602583611cc1565b9150612b2582612abe565b604082019050919050565b60006020820190508181036000830152612b4981612b0d565b9050919050565b7f45524332303a207472616e7366657220746f20746865207a65726f206164647260008201527f6573730000000000000000000000000000000000000000000000000000000000602082015250565b6000612bac602383611cc1565b9150612bb782612b50565b604082019050919050565b60006020820190508181036000830152612bdb81612b9f565b9050919050565b7f45524332303a207472616e7366657220616d6f756e742065786365656473206260008201527f616c616e63650000000000000000000000000000000000000000000000000000602082015250565b6000612c3e602683611cc1565b9150612c4982612be2565b604082019050919050565b60006020820190508181036000830152612c6d81612c31565b9050919050565b612c7d81612101565b8114612c8857600080fd5b50565b600081519050612c9a81612c74565b92915050565b600060208284031215612cb657612cb5611d7b565b5b6000612cc484828501612c8b565b91505092915050565b7f45524331393637557067726164653a206e657720696d706c656d656e7461746960008201527f6f6e206973206e6f742055555053000000000000000000000000000000000000602082015250565b6000612d29602e83611cc1565b9150612d3482612ccd565b604082019050919050565b60006020820190508181036000830152612d5881612d1c565b9050919050565b7f45524331393637557067726164653a20756e737570706f727465642070726f7860008201527f6961626c65555549440000000000000000000000000000000000000000000000602082015250565b6000612dbb602983611cc1565b9150612dc682612d5f565b604082019050919050565b60006020820190508181036000830152612dea81612dae565b9050919050565b7f496e697469616c697a61626c653a20636f6e747261637420697320616c72656160008201527f647920696e697469616c697a6564000000000000000000000000000000000000602082015250565b6000612e4d602e83611cc1565b9150612e5882612df1565b604082019050919050565b60006020820190508181036000830152612e7c81612e40565b9050919050565b7f496e697469616c697a61626c653a20636f6e7472616374206973206e6f74206960008201527f6e697469616c697a696e67000000000000000000000000000000000000000000602082015250565b6000612edf602b83611cc1565b9150612eea82612e83565b604082019050919050565b60006020820190508181036000830152612f0e81612ed2565b9050919050565b7f45524332303a206d696e7420746f20746865207a65726f206164647265737300600082015250565b6000612f4b601f83611cc1565b9150612f5682612f15565b602082019050919050565b60006020820190508181036000830152612f7a81612f3e565b9050919050565b7f455243313936373a206e657720696d706c656d656e746174696f6e206973206e60008201527f6f74206120636f6e747261637400000000000000000000000000000000000000602082015250565b6000612fdd602d83611cc1565b9150612fe882612f81565b604082019050919050565b6000602082019050818103600083015261300c81612fd0565b9050919050565b7f416464726573733a2064656c65676174652063616c6c20746f206e6f6e2d636f60008201527f6e74726163740000000000000000000000000000000000000000000000000000602082015250565b600061306f602683611cc1565b915061307a82613013565b604082019050919050565b6000602082019050818103600083015261309e81613062565b9050919050565b600081519050919050565b600081905092915050565b60006130c6826130a5565b6130d081856130b0565b93506130e0818560208601611cd2565b80840191505092915050565b60006130f882846130bb565b91508190509291505056fe416464726573733a206c6f772d6c6576656c2064656c65676174652063616c6c206661696c6564a2646970667358221220de6aa43034dc618873aa29d5ac11930a00692868414dd031dbc9a2e400895dc664736f6c634300080e0033",
  "linkReferences": {},
  "deployedLinkReferences": {}
}